:1000000008308A00002800004527431D251731339A
:10001000A020501D25173133000025342E343134F3
:100020006634DF3443342034203420342034253403
:100030002E3431346634253463340034D434ED3214
:10004000A037753A21004334E531EB39F536A0226B
:1000500072396F392100CE372039E539F037EE3962
:1000600065006639EF36203AE832A0396537F33754
:1000700072006D3084008313000803194C2802308D
:10008000F800F701F70B4228F80B41289730F700EA
:10009000F70B4828800B3F28080074185128861158
:1000A0005228861583168611F4185A2883120612D0
:1000B0005C288316831206168316061274196428A8
:1000C000831286126628831683128616831686127A
:1000D000F4196E28831206137028831683120617EC
:1000E000831606130000831206158316061178285E
:1000F0007928831206118316061183120800F50170
:10010000831686150030831286190130F504831694
:10011000061600308312061A0130F7000310F70D9F
:100120007708F5048316861600308312861A01308C
:10013000F700F70DF70DFC30F7057708F504831687
:10014000061700308312061B0130F700F70DF70D7C
:10015000F70DF830F7057708F5047508F800080082
:1001600083160611061086108312061083160610D9
:1001700086150616861606178312861483168610B1
:1001800000008312061583160611000083127F20DB
:100190007808F40006118316061100008312061574
:1001A00083160611D32883127F207808F3000611E6
:1001B000831606118611061286120613740EF700B6
:1001C000F030F70577087304F8007808F300F31BA4
:1001D000B828F108031DF02883120610F2288316B0
:1001E00083120614831606100000831286108316ED
:1001F000861000008312061183160611720EF3009A
:100200000F30F3057308F40083124D2072080F3984
:10021000F300F4004D2008002830E0000C30E1002D
:100220000130E2000630E300061183160611831246
:100230000610831606108312861083168610861108
:100240000612861206130611061086100F3083124E
:10025000ED0039200130DF005F08033C031C382922
:100260000330F4004D200530ED003920DF0A2C2941
:100270000230F4004D200530ED003920DF015F0829
:10028000033C031C4F2960305F0784008313000880
:10029000E400F1016408F200B020DF0A3F298A156A
:1002A0000A125B286E0B552958294030EF00592956
:1002B000EF0101306D02EF076F088038F000F101A7
:1002C0007008F200B02008006C08073A0319722980
:1002D0000B3A03197729063A03197F29023A0319C1
:1002E00085298A290130ED00EE0052218F29F10184
:1002F0000130F200B0200230ED0039208F290130AA
:10030000ED000230EE0052218F29F1011030F20091
:10031000B0208F290130F1006C08F200B0200800F5
:100320000B08E0008B13831603178C170C140000C6
:10033000000083120313E01B8B170318C729031750
:100340000C087F390313E00003170D080313E100C5
:1003500003170F080313E2006008EC006421610832
:1003600003178D000313620803178F0003130B0894
:10037000E3008B13831603178C170C140000000086
:1003800083120313E31B8B17DF0BC729E62903171F
:100390000C0D0E0D7F390313E00003170D08031336
:1003A000E10003170F080313E2006008EC0064216A
:1003B000610803178D000313620803178F008D0A6D
:1003C00003198F0A03100313DF0B90290800831809
:1003D000EC29A03084008313F701F801F901FA0138
:1003E0008316A001A101A201A30173087204710484
:1003F000700403192D2A2030A40003108312EC0D81
:10040000ED0DEE0DEF0D8316A00DA10DA20DA30DA8
:1004100073082302031D162A72082202031D162ADE
:1004200071082102031D162A70082002031C272AC6
:100430007008A0027108031C710FA1027208031C4E
:10044000720FA2027308031C730FA3020314F70DAB
:10045000F80DF90DFA0DA40BFD2920088000840A7F
:1004600021088000840A22088000840A2308800072
:10047000831208000408E4006308E6000319EA2A6E
:100480006208EF006108EE006008ED005F08EC0014
:10049000F301F2012030F1008230F0006C08031902
:1004A000DA2A8316A0007008031D582A8312DA2A5C
:1004B000A0070318662A7F30A0020318612A83125E
:1004C000DA2A031D652A8312DA2A6C2A8130A007F2
:1004D000031C6C2A8312DA2A2008F700F801F901BC
:1004E000FA0183126D088316A400A41783126E0804
:1004F0008316A30083126F088316A2001830A00091
:10050000A101221CA02A7308FA07031C8D2AF90AEC
:10051000031D8D2AF80A0319A1177208F907031C95
:10052000942AF80A0319A11771088312EE00EE1736
:100530006E08F807031C9F2A8316A11783128316DF
:10054000A10DF80CF90CFA0CA40CA30CA20C0310CE
:10055000A00B802A0130F707031CB02A8312DA2A85
:10056000F81BBA2AA40DFA0DF90DF80DF70BBA2AEB
:100570008312DA2AA41FCD2AFA0A031DCD2AF90A0A
:10058000031DCD2AF80A031DCD2AF80CF90CFA0C2C
:10059000F70A031DCD2A8312DA2A83126D08831607
:1005A000A1007108A106A11FD72AF817DF2AF813A6
:1005B000DF2A8312F701F801F901FA0183167A089C
:1005C0008312E2007908E1007808E0007708DF0094
:1005D000E60B402A6208EF006108EE006008ED00BB
:1005E0005F08EC006C08B63CEC00FA016D08F00006
:1005F000ED170310ED0CEE0CEF0CFA0CF90CF80CE7
:10060000F70CEC0BF92AF01F102BF709F809F90980
:10061000FA09F70A0319F80A0319F90A0319FA0A79
:100620007A08E2007908E1007808E0007708DF0046
:10063000E21F272BE403E416DF09E009E109E209E0
:10064000DF0A0319E00A0319E10A0319E20A3B3041
:10065000EB009A30EA00CA30E900E8010A30E6000F
:1006600063080319E40A83145F308400831362086B
:10067000EF006108EE006008ED005F08EC006B0819
:10068000F3006A08F2006908F1006808F000E72149
:100690007808F708031D5F2B630A660203195F2BB6
:1006A00064080319612B0F3966020319592B0318CB
:1006B000912BE41B912B641B612B20308D2B203060
:1006C000E405E41E6F2BE4126308031DE4037708BE
:1006D000E4002D30EC0064216408F700E4016308B5
:1006E0006602031D7D2B7708E4002E30EC006421A8
:1006F0006408F7002030E40500303030E41E8D2B14
:10070000E4126308031DE4037708E4002D30EC00D5
:1007100064216408F700E4013030F7077708EC0043
:10072000642183106B08EF006A08EE006908ED0091
:100730006808EC00F301F201F1010A30F000E72152
:100740007A08EB007908EA007808E9007708E80001
:10075000E60B332B08000B08E0008B1383160317FE
:100760008C170C140000000083120313E01B8B177E
:1007700003170D080313E00003170F080313E1002C
:1007800003170C080313EC006421600803178D00A5
:100790000313610803178F008D0A03198F0A0313CF
:1007A000DF0BAB2B8A150A12C32880308318E406AE
:1007B000E901EA016008E8006408E8065F08031937
:1007C000C52CE700F70063080319CE2CE7020319D4
:1007D0006A2C031C282C6408ED00ED176508EC005A
:1007E0006608EB00EA010310ED0CEC0CEB0CEA0CD4
:1007F000E70BF22BE81FFF2B6914E22C691067103E
:100800006916623084008313F72C6912E81B122CDE
:10081000671C1D2CED0CEC0CEB0CEA0CF70A031911
:10082000DD2C1D2CED1B202C0310EA0DEB0DEC0D27
:10083000ED0DF7030319DD2C122C69178A2C6913AF
:100840006008E800E81F262CED17D62CED13D62CF7
:100850006308E700F7005F08E7026008ED00ED17A6
:100860006108EC006208EB00EA010310ED0CEC0CEF
:10087000EB0CEA0CE70B342CE81F412CE914E22CBA
:10088000E9106710E916663084008313F72CE9122B
:10089000E81B542C671C5F2CED0CEC0CEB0CEA0CE9
:1008A000F70A0319DD2C5F2CED1B622C0310EA0DF7
:1008B000EB0DEC0DED0DF7030319DD2C542CE917AE
:1008C0008A2CE9136408E800E81F682CED17D62C81
:1008D000ED13D62C6408ED00ED176508EC006608F2
:1008E000EB00E81F772CED136915E22C6911EA0182
:1008F0006710623084008313F72CE81BA02C60087B
:10090000E800671C8A2CED0CEC0CEB0CEA0CF70AE7
:100910000319DD2CEA1F9B2CEB0A031D9B2CEC0A10
:10092000031D9B2CED0A031D9B2CED0CEC0CEB0C1A
:10093000F70A0319DD2C691B1F2CE91B612CBF2C46
:100940008030ED06ED1FA82CE22C6408E800B52CE1
:100950006008E800ED08031DB52CEC08031DB52C5C
:10096000EB08031DB52CF701D62CED1BBF2C031093
:10097000EA0DEB0DEC0DED0DF70BB52CDD2CE81FA2
:10098000C32CED17D62CED13D62C6308F7006408A2
:10099000ED006508EC006608EB00D62C5F08F70058
:1009A0006008ED006108EC006208EB006D08F800DB
:1009B0006C08F9006B08FA00152DF701F801F90130
:1009C000FA01152DEA01EB09EC09ED09EA09EA0A39
:1009D000031DF02CEB0A031DF02CEC0A0319ED0AA1
:1009E0006918FE2BE918402C6919762CA52C0008F3
:1009F000EB07031C012DEC0A031D012DED0A031961
:100A0000671484030008EC07031C092DED0A031981
:100A1000671484030008801F803AED0703186714E9
:100A2000691A052CE91A472C7D2C08006008E7009C
:100A30006408E706E71F212D03110310E01B0314D0
:100A4000542D6008E7006308E8005F08E802031916
:100A50002F2DE71F542D0308013A8300542D6408FD
:100A6000E8006008E80203193B2DE71F542D030836
:100A7000013A8300542D6508E8006108E802031973
:100A8000472DE71F542D0308013A8300542D6608B3
:100A9000E8006208E8020319532DE71F542D0308EC
:100AA000013A8300542D0310080083168710831227
:100AB00087101930ED00392087141330F700F70B39
:100AC0005F2D622D8316871483128A150A128C29D2
:100AD0001A30F700F70B6A2D000087187F2D34308D
:100AE000F700F70B712D742D0000871C7F2D20302F
:100AF000F700F70B792D7C2D00000130F8008A15E6
:100B00000A128F29E1013C1C852DDF015F08073C9B
:100B1000031CCA2DE0018718962DE00A6008643C8A
:100B20000318942D3C14962D952D8B2D1330F70022
:100B3000F70B982D9B2D8718AE2D5F08073CE20020
:100B40000130F7006208F8000319AA2D0310F70D11
:100B5000F80BA62D7708FF3AE105C82D5F08073C82
:100B6000E2000130F7006208F8000319BB2D031002
:100B7000F70DF80BB72D7708E104871CC82DE00AA4
:100B80006008643C0318C62D3C14C82DC72DBD2D2C
:100B9000DF0A862D6108F80008000B08DF008B13C0
:100BA000831603178C170C14000000008312031324
:100BB000DF1B8B1703170C087F390319212E031332
:100BC000DF0003170D080313E00003170F080313DA
:100BD000E1005F08EC006421600803178D00031337
:100BE000610803178F0003130B08E2008B138316B1
:100BF00003178C170C140000000083120313E21B70
:100C00008B1703170C0D0E0D7F390319212E0313BB
:100C1000DF0003170D080313E00003170F08031389
:100C2000E1005F08EC006421600803178D000313E6
:100C3000610803178F008D0A03198F0A0313CD2D46
:100C4000031703130800F801F901F701FA0164081A
:100C5000031D2D2E63080319472E1030E5000310E5
:100C6000E10DE20DF70DFA0D64087A02031D3A2E2C
:100C700063087702031C432E6308F702031CFA0380
:100C80006408FA020314F80DF90DE50B2F2E080085
:100C90008E30F7006008F8005F08F900FA01F808E4
:100CA000031D5C2E7908F800F9010830F702F808F6
:100CB000031D5C2EF701642E0310F81B632EF90D43
:100CC000F80DF7035C2EF81308005F0803192A2FAC
:100CD000EB00630803192A2FEB02031C742E7F30EC
:100CE000EB0703182A2F7A2E8130EB02031C2A2FE0
:100CF00003192A2F6B08F700F801F901FA01EA013C
:100D00006008E900E9176108E8006208E7001930A7
:100D1000EB006608E70203189D2E0130E802031875
:100D20009D2EE90203189D2EEA0203189D2EEA0A61
:100D3000E90AE80A6608E707CF2E6508E802031803
:100D4000B82E0130E9020318B82EEA020318B82EB3
:100D5000EA0AE90A6508E8076608E707031CCF2ED8
:100D6000E80A031DCF2EE90A031DCF2EEA0ACF2E73
:100D700064088038E9020318CE2E0130EA02031815
:100D8000CE2EEA0A64088038E9076508E807031CE4
:100D9000AC2EE90A031DAC2EEA0AAC2E7A14EB0B3A
:100DA000D22EDD2E0310E70DE80DE90DEA0D03103C
:100DB000FA0DF90DF80DEC0D892E6C1CE52E0310C3
:100DC000F80CF90CFA0CEC0CE82EF70303192A2F97
:100DD000EC1B112F0310E70DE80DE90DEA0D660875
:100DE000E7020318FD2E0130E8020318FD2EE90288
:100DF0000318FD2EEA02031C202F6508E8020318E1
:100E0000082F0130E9020318082FEA02031C202FE3
:100E100064088038E9020318112F0130EA02031C2C
:100E2000202FFA0A031D202FF90A031D202FF80A8C
:100E3000031D202FF70A03192A2FF80CF90CFA0CBE
:100E40006008EB006408EB06EB1F282FF8172E2F25
:0E0E5000F8132E2FF701F801F901FA0108003E
:1010000003081F398300BD01C101C0014C30BF007E
:101010008330BE00CD30C500CC30C4003830C300B2
:101020008330C200CC01CB01CE01CD01DA01D90160
:10103000D801D701DE01DD01DC01DB0183161F14BD
:101040009F141F159F1107309C0083135430831287
:10105000A0006530A1006D30A2007030A3002030E8
:10106000A4003D30A5002030A6003030A700A80025
:101070002E30A9003030AA002030AB004330AC0045
:10108000AD015230AE004830AF002030B000B100AA
:10109000B2003D30B3002030B4003030B500B600AF
:1010A0002E30B7003030B8002030B9002530BA00FB
:1010B000BB018A110C298A150C30EC008A116421BD
:1010C0008A156E30ED008A1139208A153C100130E6
:1010D000ED00EE008A1152218A15043003178D00AD
:1010E00000308F00031004300313DF008A119021B9
:1010F0008A15893084004108E2004008E1003F0879
:10110000E0003E08DF000130E3008A113A228A1530
:10111000083003178D0000308F00031004300313D4
:10112000DF008A1190218A15893084004508E20089
:101130004408E1004308E0004208DF000130E3001A
:101140008A113A228A150130ED000230EE008A1130
:1011500052218A15893084005A08E2005908E100BA
:101160005808E0005708DF000130E3008A113A22F6
:101170008A15113003178D0000308F0006300313DD
:10118000DF008A11AB2B8A15893084005E08E200EB
:101190005D08E1005C08E0005B08DF000130E3006F
:1011A0008A113A228A152530EC008A1164218A15A9
:1011B000051DF62883104108E2004008E1003F08C1
:1011C000E0003E08DF00CD30E600CC30E5004C30DA
:1011D000E4007B30E3008A11D5238A157A08C10028
:1011E0007908C0007808BF007708BE00851D142963
:1011F00083144108E2004008E1003F08E0003E0897
:10120000DF00CD30E600CC30E5004C30E4007B3030
:10121000E3008A11D5238A157A08C1007908C00035
:101220007808BF007708BE00051E322983104508E4
:10123000E2004408E1004308E0004208DF00CD304E
:10124000E600CC30E5004C30E4007B30E3008A114E
:10125000D5238A157A08C5007908C4007808C30028
:101260007708C200851E502983144508E20044080F
:10127000E1004308E0004208DF00CD30E600CC305A
:10128000E5004C30E4007B30E3008A11D5238A1559
:101290007A08C5007908C4007808C3007708C2003E
:1012A0004108E2004008E1003F08E0003E08DF009E
:1012B0005A08E6005908E5005808E4005708E3001A
:1012C0008A1116258A1503186729031D6B298316B1
:1012D0008613831286175A08E2005908E10058085D
:1012E000E0005708DF004508E6004408E500430831
:1012F000E4004208E3008A1116258A1503188229A2
:10130000031D862983168613831286133D08073C26
:1013100003181E2B8A11552D8A158A11682D8A15DE
:10132000F8080319A82A8A1182258A157808C800A6
:101330008A1182258A157808C9008A1182258A15A2
:101340007808C6008A1182258A157808C7008A1194
:1013500082258A157808CA003C1CC4290C30EC0090
:101360008A1164218A150530ED000130EE008A11E2
:1013700052218A151E3003178D0000308F008A110C
:101380000313CD258A15A72A4908480746074707AA
:101390004A02031D932ACE014808CD004D08E00003
:1013A000DF015F084904CD006008CE00CC0146088B
:1013B000CB004B08E000DF015F084704CB0060086A
:1013C000CC004C087F3C0318F029FF3A031DEC29A0
:1013D0004B08003C0318F0292D30A600CC13F2294D
:1013E0002030A6004C08E2004B08E100E401643024
:1013F000E3008A1123268A157908E0007808DF00C7
:101400006008E2005F08E100E4010A30E3008A11AD
:1014100023268A157708DF007A08E00030305F075E
:10142000A7004C08E2004B08E100E4010A30E300A9
:101430008A1123268A157908E0007808DF00600801
:10144000E2005F08E100E4010A30E3008A1123268C
:101450008A157708DF007A08E00030305F07A800BF
:101460004C08E2004B08E100E4010A30E3008A1175
:1014700023268A157708DF007A08E00030305F07FE
:10148000AA004E08E2004D08E100E4016430E300E8
:101490008A1123268A157908E0007808DF006008A1
:1014A000E2005F08E100E4010A30E3008A1123262C
:1014B0008A157708DF007A08E00030305F07B50052
:1014C0004E08E2004D08E100E4010A30E3008A1111
:1014D00023268A157908E0007808DF006008E2001A
:1014E0005F08E100E4010A30E3008A1123268A152F
:1014F0007708DF007A08E00030305F07B6004E085A
:10150000E2004D08E100E4010A30E3008A112326DD
:101510008A157708DF007A08E00030305F07B800EE
:10152000DF30AB00A72A0C30EC008A1164218A1549
:101530000130ED00EE008A1152218A152330031785
:101540008D0000308F008A110313CD258A15CD2A16
:101550000C30EC008A1164218A150330ED00013053
:10156000EE008A1152218A152B3003178D000030AE
:101570008F008A110313CD258A150130ED0002304A
:10158000EE008A1152218A15313003178D00003088
:101590008F008A110313CD258A15BD014C08E00088
:1015A0004B08DF008A1148268A157A08D20079088C
:1015B000D1007808D0007708CF004E08E0004D0831
:1015C000DF008A1148268A157A08D6007908D500E6
:1015D0007808D4007708D3005208E2005108E100EF
:1015E0005008E0004F08DF00E601E5012030E4008C
:1015F0008230E3008A1165268A157A08DA007908B4
:10160000D9007808D8007708D7005608E2005508B6
:10161000E1005408E0005308DF00E601E501203056
:10162000E4008230E3008A1165268A157A08DE001C
:101630007908DD007808DC007708DB000130BD07A1
:0416400061286300BA
:02400E00723FFF
:00000001FF
;PIC16F876A
;CRC=3460  CREATED="10-Mar-21 14:20"
